:020000040000FA
:100000000C945D000C9485000C9485000C94850084
:100010000C9485000C9485000C9485000C9485004C
:100020000C9485000C9485000C9485000C9485003C
:100030000C9485000C9485000C9485000C9485002C
:100040000C9408030C9485000C9485000C94850096
:100050000C9485000C9485000C9485000C9485000C
:100060000C9485000C94850000000008000201003B
:100070000003040700000000000000000000000072
:10008000250028002B0000000000240027002A0083
:10009000040404040404040402020202020203032E
:1000A0000303030301020408102040800102040836
:1000B0001020010204081020F30811241FBECFEF06
:1000C000D8E0DEBFCDBF12E0A0E0B1E0EEE9F2E1A2
:1000D00002C005900D92AA33B107D9F722E0AAE336
:1000E000B2E001C01D92A039B207E1F710E0CDE502
:1000F000D0E004C02197FE010E944709CC35D1070A
:10010000C9F70E9452030C944D090C94000090E032
:10011000FC01EC55FF4F249180579F4FFC018491C7
:10012000882399F090E0880F991FFC01EA57FF4F50
:10013000A591B491FC01E458FF4F859194918FB73C
:10014000F894EC91E22BEC938FBF0895AF92BF929D
:10015000CF92DF92EF92FF920F931F93CF93DF9393
:100160006C017B018B01040F151FEB015E01AE18C2
:10017000BF08C017D10759F06991D601ED91FC91E4
:100180000190F081E02DC6010995892B79F7C50111
:10019000DF91CF911F910F91FF90EF90DF90CF9063
:1001A000BF90AF90089590E0FC01E859FF4F249173
:1001B000FC01EC55FF4F3491FC01E057FF4FE491F7
:1001C000EE23C9F0222339F0233001F1A8F42130C5
:1001D00019F1223029F1F0E0EE0FFF1FE458FF4F34
:1001E000A591B4918FB7F894EC91611126C0309528
:1001F0003E233C938FBF08952730A9F02830C9F0E3
:10020000243049F7809180008F7D03C08091800069
:100210008F7780938000DFCF84B58F7784BDDBCF6D
:1002200084B58F7DFBCF8091B0008F778093B00035
:10023000D2CF8091B0008F7DF9CF3E2BDACF3FB780
:10024000F89480913F0290914002A0914102B091B8
:10025000420226B5A89B05C02F3F19F00196A11DAB
:10026000B11D3FBFBA2FA92F982F8827BC01CD0100
:10027000620F711D811D911D42E0660F771F881F5F
:10028000991F4A95D1F708952FB7F89460913B02D2
:1002900070913C0280913D0290913E022FBF0895E3
:1002A000089590E080E008958F929F92AF92BF9260
:1002B0000F931F93CF93DF93CDB7DEB7A1970FB600
:1002C000F894DEBF0FBECDBF19A2423008F44AE059
:1002D0008E010F5D1F4F842E912CB12CA12CA501F6
:1002E00094010E942509E62FB901CA01EA3044F5BC
:1002F000E05DD801EE938D01232B242B252B79F77C
:1003000090E080E0109769F0FD0101900020E9F78E
:100310003197AF014A1B5B0BBD0188E792E00E9459
:10032000A600A1960FB6F894DEBF0FBECDBFDF9139
:10033000CF911F910F91BF90AF909F908F90089594
:10034000E95CD7CFFC0101900020E9F73197AF01BC
:10035000481B590BBC0188E792E00C94A600BC0135
:1003600090E080E04AE00C945401CF93DF93EC01DD
:1003700060E08E810E94D30061E08E810E94D300F4
:1003800060E08E810E94D3008BE891E00197F1F745
:10039000DF91CF910895CF92DF92EF92FF920F936A
:1003A0001F93CF93DF936C017C0187E0E80EF11C73
:1003B000D0E0C0E0062F10E0B8010C2E02C0759509
:1003C00067950A94E2F76170F70181917F010E94BD
:1003D000D3002196C430D10579F7C601DF91CF91C2
:1003E0001F910F91FF90EF90DF90CF900C94B5018B
:1003F000CF92DF92EF92FF920F931F93CF93DF93F1
:10040000EC01F62E642F8C810E94D3008D818F3FEA
:1004100019F060E00E94D3000F2D10E08F8584FF5B
:1004200025C06E0187E0C80ED11CF12CE12CB8016B
:100430000E2C02C0759567950A94E2F76170F6017B
:1004400081916F010E94D300FFEFEF1AFF0A88E04D
:10045000E816F10461F7CE01DF91CF911F910F9162
:10046000FF90EF90DF90CF900C94B501B80184E03D
:10047000759567958A95E1F7CE010E94CB016F2DA6
:10048000CE01DF91CF911F910F91FF90EF90DF9000
:10049000CF900C94CB0140E0682F88E792E00C9459
:1004A000F801CF93DF93823029F49091870298600E
:1004B0009093870280938B0210928C0280E4809349
:1004C0008D0280E180938E0280E580938F0280917F
:1004D0007C020E94870080917D028F3F11F00E9474
:1004E000870080917E020E948700C8E7D2E09E01CB
:1004F000285732408091870284FD0AC084E090E052
:100500002196281739073CF48E810E948700EFCF8F
:1005100088E090E0F5CF8BE39DE00197F1F760E094
:1005200080917C020E94D30060E080917E020E9454
:10053000D30080917D028F3F19F060E00E94D300CC
:100540008091870284FD39C063E088E792E00E94D1
:10055000CB01CBE4D6E4CE010197F1F763E088E765
:1005600092E00E94CB012197F1F763E088E792E0E7
:100570000E94CB0183E592E00197F1F762E088E702
:1005800092E00E94CB018091870280620E944B0220
:1005900084E0809388028CE00E944B0281E00E94FC
:1005A0004B028BE39FE10197F1F782E08093890290
:1005B00086E0DF91CF910C944B0280620E944B0247
:1005C0008BE496E40197F1F78091870280620E94A4
:1005D0004B0283E592E00197F1F7809187028062F8
:1005E0000E944B02D0CF90918B02691710F06FEFF1
:1005F000690FE62FF0E0E858FD4F9489890F806875
:100600000C944B0241E00E94F80181E090E00895D3
:100610001F920F920FB60F9211242F933F938F9337
:100620009F93AF93BF9380913B0290913C02A09126
:100630003D02B0913E0230913A0223E0230F2D3764
:1006400058F50196A11DB11D20933A0280933B02FB
:1006500090933C02A0933D02B0933E0280913F02F2
:1006600090914002A0914102B09142020196A11DD9
:10067000B11D80933F0290934002A0934102B0933A
:100680004202BF91AF919F918F913F912F910F9017
:100690000FBE0F901F90189526E8230F0296A11DFC
:1006A000B11DD2CFCF93DF9300D000D0CDB7DEB74E
:1006B000789484B5826084BD84B5816084BD85B53D
:1006C000826085BD85B5816085BD80916E00816049
:1006D00080936E00109281008091810082608093EF
:1006E00081008091810081608093810080918000F1
:1006F0008160809380008091B10084608093B1001C
:100700008091B00081608093B00080917A00846015
:1007100080937A0080917A00826080937A00809141
:100720007A00816080937A0080917A00806880935B
:100730007A001092C10082E00E94510282E00E9481
:10074000870083E10E94870082E10E94870060E0C9
:1007500080E00E94F3028CE191E00E94A20160E03F
:1007600080E00E94F3028EE291E00E94A2014AE042
:1007700062E070E080E090E00E9454018BE391E041
:100780000E94A20161E080E00E94F3028FE391E009
:100790000E94A2010E941F014B015C0128EEC22EA3
:1007A00023E0D22EE12CF12C0E941F016819790957
:1007B0008A099B09683E734081059105A8F321E0F1
:1007C000C21AD108E108F10838EE830E33E0931E17
:1007D000A11CB11CC114D104E104F10429F70E9449
:1007E000440160937002709371028093720290933F
:1007F00073020E94440160936802709369028093BF
:100800006A0290936B020E944401609360027093AD
:1008100061028093620290936302109251021092DF
:10082000520208EC10E088EEC82E83E0D82EE12CAE
:10083000F12C90E0292E90E0392E0E9444014B01CA
:100840005C018092740290927502A0927602B0923E
:1008500077028091700290917102A0917202B09122
:10086000730224013501481A590A6A0A7B0A409228
:100870006C0250926D0260926E0270926F028091D3
:10088000680290916902A0916A02B0916B02A50181
:100890009401281B390B4A0B5B0B29833A834B834A
:1008A0005C83209364023093650240936602509308
:1008B00067028091600290916102A0916202B09102
:1008C0006302A5019401281B390B4A0B5B0BDA016B
:1008D000C90180935C0290935D02A0935E02B09385
:1008E0005F0240910C0150910D0160910E017091D9
:1008F0000F0184179507A607B707B8F08091590232
:10090000882399F01092590231E030935A020E94E4
:100910004401609368027093690280936A02909325
:100920006B028091000180935202809105019091A9
:100930000601B0E0A0E084159505A605B705E8F42A
:10094000809148028823C9F01092480260E08DE04F
:100950000E94D30060E082E00E94D30080915102A7
:1009600081110BC060E082E10E94D30080915202AD
:10097000811103C041E0409358028091030190919E
:100980000401B0E0A0E0481659066A067B0620F193
:1009900080914802811120C0809151028823E1F0AA
:1009A00090915A029923C1F081508093510251E0F5
:1009B000509348020E944401609370027093710248
:1009C000809372029093730261E08DE00E94D300E5
:1009D00061E082E00E94D3008091080190910901BA
:1009E000A0910A01B0910B0129813A814B815C8170
:1009F000281739074A075B0720F1809152028823A4
:100A000001F190915A029923E1F0815080935202B2
:100A10000E944401609368027093690280936A02A5
:100A200090936B02809102018093510261E083E117
:100A30000E94D30061E082E10E94D30031E0309354
:100A40004302809143028823C1F080916802909113
:100A50006902A0916A02B0916B02881A990AAA0AE7
:100A6000BB0A45E084169104A104B10430F060E0B3
:100A700083E10E94D3001092430250E450937C0023
:100A800080917A00806480937A0080917A0086FD5C
:100A9000FCCF909178008091790089279827892749
:100AA000B8010E941109262F60935B02623009F0A1
:100AB0000BC380914702811190C380910701873059
:100AC000F0F48F5F8093070191E0909347021092BA
:100AD000460221110DC38091450281110DC0809104
:100AE0000701833009F447C080F4813081F18230FE
:100AF000C1F151E0509345021092440212C381E0CB
:100B0000E1CFA7E0A0930701F0C2853009F459C0F6
:100B1000C0F1863071F780910C0190910D01A09188
:100B20000E01B0910F01803147E29407A105B10594
:100B300008F451C0805F984DAF4FBF4F80930C01B8
:100B400090930D01A0930E01B0930F01D2CF80912D
:100B5000050190910601C2969093060180930501CC
:100B6000C8CF8091030190910401C2969093040133
:100B700080930301BECF809102018F5F80930201B9
:100B8000B8CF8091080190910901A0910A01B0911C
:100B90000B01803137E29307A105B10568F0805F52
:100BA000984DAF4FBF4F8093080190930901A093D8
:100BB0000A01B0930B019DCF88519C4FAF4FBF4F9F
:100BC000F2CF809100019091010101969093010173
:100BD000809300018ECF88519C4FAF4FBF4FAECF57
:100BE000853009F46DC008F444C0863009F096C21F
:100BF00080910C0190910D01A0910E01B0910F0117
:100C0000813157E29507A105B10508F467C080510D
:100C10009742A109B10980930C0190930D01A09313
:100C20000E01B0930F017AC28091050190910601E7
:100C30008333910508F472C2C297909306018093A2
:100C400005016CC2809103019091040183339105E9
:100C500008F464C2C29790930401809303015EC2BA
:100C600080910201823008F459C2815080930201C0
:100C700055C28091080190910901A0910A01B0919B
:100C80000B01813137E29307A105B10568F080516E
:100C90009742A109B1098093080190930901A0939B
:100CA0000A01B0930B013AC2893E43E09407A105C3
:100CB000B10508F433C2885E9340A109B109EBCFB6
:100CC00080910001909101018230910508F426C2C3
:100CD0000197909301018093000120C2883E33E088
:100CE0009307A105B10508F419C2885E9340A109D4
:100CF000B10991CF8091490290914A02A0914B0293
:100D0000B0914C02A5019401281B390B4A0B5B0BD7
:100D1000DA01C901813D9740A105B10508F42CC253
:100D2000711020C08091590281111CC041E0409394
:100D300059028091740290917502A0917602B0914F
:100D400077028093600290936102A0936202B09355
:100D5000630210925C0210925D0210925E02109289
:100D60005F020AC280915802882309F405C21092DA
:100D7000590210925A02109248021092580260E0F2
:100D80008DE00E94D30060E082E00E94D30060E02A
:100D900083E10E94D3008092490290924A02A0927D
:100DA0004B02B0924C02E8C110925702E5C180E5B7
:100DB00091E00E94A20161E080E00E94F302809134
:100DC0000501909106010E94AF0181E691E00E9429
:100DD000A2010E94440160935302709354028093D5
:100DE0005502909356028091570261E0882309F4DE
:100DF00065C18FE00E94F30288E392E00E94A201A5
:100E00002114310409F419CD0E94000016CD80E7A9
:100E100091E00E94A20161E080E00E94F3028091D3
:100E2000030190910401CFCF81E891E00E94A201DB
:100E300061E080E00E94F3026091020170E090E0C6
:100E400080E04AE00E94540183E991E0C0CF83EA48
:100E500091E00E94A20161E080E00E94F3026091B3
:100E600008017091090180910A0190910B01A7017D
:100E700096010E942509CA01B9014AE00E94540165
:100E800084EB91E0A4CF82EC91E00E94A20161E0AA
:100E900080E00E94F30280910001909101010E9484
:100EA000AF0184E991E093CF84ED91E00E94A2012B
:100EB00061E080E00E94F30260910C0170910D01ED
:100EC00080910E0190910F01D2CF85EE91E00E94AA
:100ED000A2016091020170E090E080E04AE00E948F
:100EE000540188EE91E00E94A20180910501909149
:100EF00006010E94AF018CEE91E00E94A201809158
:100F00000301909104010E94AF018DE991E00E94DC
:100F1000A20161E080E00E94F30280EF91E00E9474
:100F2000A20180910001909101010E94AF0188EE21
:100F300091E00E94A20160910801709109018091E5
:100F40000A0190910B01A70196010E942509CA018F
:100F5000B9014AE00E94540183EF91E00E94A2018E
:100F600060910C0170910D0180910E0190910F0123
:100F7000A70196010E942509CA01B9014AE00E9411
:100F8000540189E991E023CF61E080E00E94F302FF
:100F900087EF91E0B1100BC080915202811105C022
:100FA00080915102882309F459C08BE092E00E949D
:100FB000A20160E080E00E94F3028EE292E00E94D3
:100FC000A2016091510270E090E080E04AE00E944E
:100FD000540181EA91E00E94A20180E392E00E9424
:100FE000A2016091520270E090E080E04AE00E942D
:100FF000540181EA91E00E94A20180915902882364
:1010000081F182E392E00E94A20160915C02709102
:101010005D0280915E0290915F02A70196010E949D
:101020002509CA01B9014AE00E94540184E392E013
:101030000E94A20160910C0170910D0180910E013E
:1010400090910F01A70196010E942509CA01B901DB
:101050004AE00E9454018DE991E0B9CE8CE192E022
:10106000A6CF86E392E00E94A20160916402709193
:1010700065028091660290916702A70196010E9425
:101080002509CA01B9014AE00E94540184E392E0B3
:101090000E94A201609108017091090180910A01EA
:1010A00090910B01A70196010E942509CA01B9017F
:1010B0004AE00E9454018EE991E089CE8FE00E94BF
:1010C000F30281EA91E09ACE10924702613009F072
:1010D000FECC80914602811183C08091070182304D
:1010E00008F40FCD815080930701B1E0B093460220
:1010F00010924502233009F0FFCC80914402811107
:1011000010C080910701833009F4AACD08F068CDA2
:10111000813009F489CD823009F494CD41E04093C7
:10112000440270905A02711004C0809159028823C1
:1011300029F080915802882309F436CE243009F032
:1011400033CE0E9444014B015C0180924D0290928B
:101150004E02A0924F02B09250028091570281112C
:10116000C9CD8092490290924A02A0924B02B0925D
:101170004C0251E0509357020E9444018090530268
:1011800090905402A0905502B090560268197909C7
:101190008A099B096D3271408105910508F430CEB2
:1011A000B090590280915A028111EECEB110ECCE6E
:1011B00060E00E94F302E0910701E150E73008F09F
:1011C00008CEF0E0EA51F74F0C944709D70607071D
:1011D000140727074307540765071092460288CF74
:1011E0001092450289CCE8E7F2E01382128284E192
:1011F00091E09183808388E084838FEF858389E009
:10120000868384E0878385E0808786E0818787E026
:1012100082871386148615861686178681E00C94BD
:101220005102AA1BBB1B51E107C0AA1FBB1FA61777
:10123000B70710F0A61BB70B881F991F5A95A9F77F
:1012400080959095BC01CD010895A1E21A2EAA1BAC
:10125000BB1BFD010DC0AA1FBB1FEE1FFF1FA21766
:10126000B307E407F50720F0A21BB30BE40BF50B63
:10127000661F771F881F991F1A9469F760957095EC
:10128000809590959B01AC01BD01CF010895EE0FB3
:10129000FF1F0590F491E02D0994F894FFCF0F0003
:1012A000052C0196000760EA0000C0D40100000090
:1012B00000000203A60051015001496E6974696C77
:1012C00069616C697A696E672E2E2E00486F6C64B6
:1012D0002073656C656374200073202000746F2098
:1012E000737461727420616E7974696D65005075F4
:1012F0006C73652077696474683A20202020002090
:101300006D732020202020202020202020005075D8
:101310006C7365206379636C653A2020202000504F
:10132000756C7365732070657220747261696E3AB2
:1013300000202020202020202020202020202020CD
:1013400000547261696E206379636C653A202020D5
:10135000200020732020202020202020202020007A
:101360004E756D206F6620747261696E733A20202D
:101370002000547261696E2064656C61793A2020A6
:1013800020200050200020582000202F2000542032
:101390000020442000547261696E2064656C61799C
:1013A000696E67202020202000547261696E204FF2
:1013B0004E202020202020202000547261696E20C1
:1013C000444F4E4520202020202020005000540073
:0813D00044002F005200480008
:107E0000112484B714BE81FFF0D085E080938100F7
:107E100082E08093C00088E18093C10086E0809377
:107E2000C20080E18093C4008EE0C9D0259A86E02C
:107E300020E33CEF91E0309385002093840096BBD3
:107E4000B09BFECF1D9AA8958150A9F7CC24DD24C4
:107E500088248394B5E0AB2EA1E19A2EF3E0BF2EE7
:107E6000A2D0813461F49FD0082FAFD0023811F036
:107E7000013811F484E001C083E08DD089C08234E0
:107E800011F484E103C0853419F485E0A6D080C0E4
:107E9000853579F488D0E82EFF2485D0082F10E0AE
:107EA000102F00270E291F29000F111F8ED06801E7
:107EB0006FC0863521F484E090D080E0DECF843638
:107EC00009F040C070D06FD0082F6DD080E0C81688
:107ED00080E7D80618F4F601B7BEE895C0E0D1E017
:107EE00062D089930C17E1F7F0E0CF16F0E7DF06D8
:107EF00018F0F601B7BEE89568D007B600FCFDCFD4
:107F0000A601A0E0B1E02C9130E011968C91119780
:107F100090E0982F8827822B932B1296FA010C0160
:107F200087BEE89511244E5F5F4FF1E0A038BF0790
:107F300051F7F601A7BEE89507B600FCFDCF97BE46
:107F4000E89526C08437B1F42ED02DD0F82E2BD052
:107F50003CD0F601EF2C8F010F5F1F4F84911BD097
:107F6000EA94F801C1F70894C11CD11CFA94CF0C13
:107F7000D11C0EC0853739F428D08EE10CD085E9AC
:107F80000AD08FE07ACF813511F488E018D01DD067
:107F900080E101D065CF982F8091C00085FFFCCF94
:107FA0009093C60008958091C00087FFFCCF809118
:107FB000C00084FD01C0A8958091C6000895E0E648
:107FC000F0E098E1908380830895EDDF803219F02E
:107FD00088E0F5DFFFCF84E1DECF1F93182FE3DFCA
:107FE0001150E9F7F2DF1F91089580E0E8DFEE27F6
:047FF000FF270994CA
:027FFE00040479
:00000001FF
