:100000000C945D000C9485000C9485000C94850084
:100010000C9485000C9485000C9485000C9485004C
:100020000C9485000C9485000C9485000C9485003C
:100030000C9485000C9485000C9485000C9485002C
:100040000C9408030C9485000C9485000C94850096
:100050000C9485000C9485000C9485000C9485000C
:100060000C9485000C94850000000008000201003B
:100070000003040700000000000000000000000072
:10008000250028002B0000000000240027002A0083
:10009000040404040404040402020202020203032E
:1000A0000303030301020408102040800102040836
:1000B0001020010204081020FE0811241FBECFEFFB
:1000C000D8E0DEBFCDBF12E0A0E0B1E0E4EBF2E1AA
:1000D00002C005900D92AA33B107D9F722E0AAE336
:1000E000B2E001C01D92A139B207E1F710E0CDE501
:1000F000D0E004C02197FE010E945209CC35D107FF
:10010000C9F70E9452030C9458090C94000090E027
:10011000FC01EC55FF4F249180579F4FFC018491C7
:10012000882399F090E0880F991FFC01EA57FF4F50
:10013000A591B491FC01E458FF4F859194918FB73C
:10014000F894EC91E22BEC938FBF0895AF92BF929D
:10015000CF92DF92EF92FF920F931F93CF93DF9393
:100160006C017B018B01040F151FEB015E01AE18C2
:10017000BF08C017D10759F06991D601ED91FC91E4
:100180000190F081E02DC6010995892B79F7C50111
:10019000DF91CF911F910F91FF90EF90DF90CF9063
:1001A000BF90AF90089590E0FC01E859FF4F249173
:1001B000FC01EC55FF4F3491FC01E057FF4FE491F7
:1001C000EE23C9F0222339F0233001F1A8F42130C5
:1001D00019F1223029F1F0E0EE0FFF1FE458FF4F34
:1001E000A591B4918FB7F894EC91611126C0309528
:1001F0003E233C938FBF08952730A9F02830C9F0E3
:10020000243049F7809180008F7D03C08091800069
:100210008F7780938000DFCF84B58F7784BDDBCF6D
:1002200084B58F7DFBCF8091B0008F778093B00035
:10023000D2CF8091B0008F7DF9CF3E2BDACF3FB780
:10024000F89480913F0290914002A0914102B091B8
:10025000420226B5A89B05C02F3F19F00196A11DAB
:10026000B11D3FBFBA2FA92F982F8827BC01CD0100
:10027000620F711D811D911D42E0660F771F881F5F
:10028000991F4A95D1F708952FB7F89460913B02D2
:1002900070913C0280913D0290913E022FBF0895E3
:1002A000089590E080E008958F929F92AF92BF9260
:1002B0000F931F93CF93DF93CDB7DEB7A1970FB600
:1002C000F894DEBF0FBECDBF19A2423008F44AE059
:1002D0008E010F5D1F4F842E912CB12CA12CA501F6
:1002E00094010E943009E62FB901CA01EA3044F5B1
:1002F000E05DD801EE938D01232B242B252B79F77C
:1003000090E080E0109769F0FD0101900020E9F78E
:100310003197AF014A1B5B0BBD0189E792E00E9458
:10032000A600A1960FB6F894DEBF0FBECDBFDF9139
:10033000CF911F910F91BF90AF909F908F90089594
:10034000E95CD7CFFC0101900020E9F73197AF01BC
:10035000481B590BBC0189E792E00C94A600BC0134
:1003600090E080E04AE00C945401CF93DF93EC01DD
:1003700060E08E810E94D30061E08E810E94D300F4
:1003800060E08E810E94D3008BE891E00197F1F745
:10039000DF91CF910895CF92DF92EF92FF920F936A
:1003A0001F93CF93DF936C017C0187E0E80EF11C73
:1003B000D0E0C0E0062F10E0B8010C2E02C0759509
:1003C00067950A94E2F76170F70181917F010E94BD
:1003D000D3002196C430D10579F7C601DF91CF91C2
:1003E0001F910F91FF90EF90DF90CF900C94B5018B
:1003F000CF92DF92EF92FF920F931F93CF93DF93F1
:10040000EC01F62E642F8C810E94D3008D818F3FEA
:1004100019F060E00E94D3000F2D10E08F8584FF5B
:1004200025C06E0187E0C80ED11CF12CE12CB8016B
:100430000E2C02C0759567950A94E2F76170F6017B
:1004400081916F010E94D300FFEFEF1AFF0A88E04D
:10045000E816F10461F7CE01DF91CF911F910F9162
:10046000FF90EF90DF90CF900C94B501B80184E03D
:10047000759567958A95E1F7CE010E94CB016F2DA6
:10048000CE01DF91CF911F910F91FF90EF90DF9000
:10049000CF900C94CB0140E0682F89E792E00C9458
:1004A000F801CF93DF93823029F49091880298600D
:1004B0009093880280938C0210928D0280E4809346
:1004C0008E0280E180938F0280E58093900280917C
:1004D0007D020E94870080917E028F3F11F00E9472
:1004E000870080917F020E948700C9E7D2E09E01C9
:1004F000295732408091880284FD0AC084E090E050
:100500002196281739073CF48E810E948700EFCF8F
:1005100088E090E0F5CF8BE39DE00197F1F760E094
:1005200080917D020E94D30060E080917F020E9452
:10053000D30080917E028F3F19F060E00E94D300CB
:100540008091880284FD39C063E089E792E00E94CF
:10055000CB01CBE4D6E4CE010197F1F763E089E764
:1005600092E00E94CB012197F1F763E089E792E0E6
:100570000E94CB0183E592E00197F1F762E089E701
:1005800092E00E94CB018091880280620E944B021F
:1005900084E0809389028CE00E944B0281E00E94FB
:1005A0004B028BE39FE10197F1F782E080938A028F
:1005B00086E0DF91CF910C944B0280620E944B0247
:1005C0008BE496E40197F1F78091880280620E94A3
:1005D0004B0283E592E00197F1F7809188028062F7
:1005E0000E944B02D0CF90918C02691710F06FEFF0
:1005F000690FE62FF0E0E758FD4F9489890F806876
:100600000C944B0241E00E94F80181E090E00895D3
:100610001F920F920FB60F9211242F933F938F9337
:100620009F93AF93BF9380913B0290913C02A09126
:100630003D02B0913E0230913A0223E0230F2D3764
:1006400058F50196A11DB11D20933A0280933B02FB
:1006500090933C02A0933D02B0933E0280913F02F2
:1006600090914002A0914102B09142020196A11DD9
:10067000B11D80933F0290934002A0934102B0933A
:100680004202BF91AF919F918F913F912F910F9017
:100690000FBE0F901F90189526E8230F0296A11DFC
:1006A000B11DD2CFCF93DF9300D000D0CDB7DEB74E
:1006B000789484B5826084BD84B5816084BD85B53D
:1006C000826085BD85B5816085BD80916E00816049
:1006D00080936E00109281008091810082608093EF
:1006E00081008091810081608093810080918000F1
:1006F0008160809380008091B10084608093B1001C
:100700008091B00081608093B00080917A00846015
:1007100080937A0080917A00826080937A00809141
:100720007A00816080937A0080917A00806880935B
:100730007A001092C10082E00E94510282E00E9481
:10074000870083E10E94870082E10E94870060E0C9
:1007500080E00E94F3028CE191E00E94A20160E03F
:1007600080E00E94F3028EE291E00E94A2014AE042
:1007700062E070E080E090E00E9454018BE391E041
:100780000E94A20161E080E00E94F3028FE391E009
:100790000E94A2010E941F014B015C0128EEC22EA3
:1007A00023E0D22EE12CF12C0E941F016819790957
:1007B0008A099B09683E734081059105A8F321E0F1
:1007C000C21AD108E108F10838EE830E33E0931E17
:1007D000A11CB11CC114D104E104F10429F70E9449
:1007E000440160937102709372028093730290933C
:1007F00074020E9444016093690270936A028093BC
:100800006B0290936C020E944401609361027093AA
:1008100062028093630290936402109252021092DB
:10082000530208EC10E088EEC82E83E0D82EE12CAD
:10083000F12C90E0292E90E0392E0E9444014B01CA
:100840005C018092750290927602A0927702B0923B
:1008500078028091710290917202A0917302B0911E
:10086000740224013501481A590A6A0A7B0A409227
:100870006D0250926E0260926F02709270028091CF
:10088000690290916A02A0916B02B0916C02A5017D
:100890009401281B390B4A0B5B0B29833A834B834A
:1008A0005C83209365023093660240936702509305
:1008B00068028091610290916202A0916302B091FE
:1008C0006402A5019401281B390B4A0B5B0BDA016A
:1008D000C90180935D0290935E02A0935F02B09382
:1008E000600240910C0150910D0160910E017091D8
:1008F0000F0184179507A607B707D0F080915A0219
:100900008823B1F010925A0231E030935B020E94CA
:1009100044016093690270936A0280936B02909322
:100920006C02809100018093530241E040934402A5
:100930008091050190910601B0E0A0E08415950535
:10094000A605B705E8F4809149028823C9F0109202
:10095000490260E08DE00E94D30060E082E00E94E6
:10096000D3008091520281110BC060E082E10E94AD
:10097000D30080915302811103C051E0509359027A
:100980008091030190910401B0E0A0E0481659065F
:100990006A067B0620F180914902811120C0809176
:1009A00052028823E1F090915B029923C1F08150BB
:1009B0008093520281E0809349020E944401609337
:1009C000710270937202809373029093740261E0DB
:1009D0008DE00E94D30061E082E00E94D30080910C
:1009E000080190910901A0910A01B0910B012981A0
:1009F0003A814B815C81281739074A075B0720F44D
:100A000080914402882341F180915302882321F18F
:100A100090915B02992301F181508093530280925F
:100A2000690290926A02A0926B02B0926C0280916D
:100A300002018093520261E083E10E94D30061E0F1
:100A400082E10E94D30031E030934302809144025E
:100A5000882331F010924402809143028823C1F030
:100A60008091690290916A02A0916B02B0916C0230
:100A7000881A990AAA0ABB0A45E084169104A104BF
:100A8000B10430F060E083E10E94D3001092430291
:100A900050E450937C0080917A00806480937A00C7
:100AA00080917A0086FDFCCF90917800809179004A
:100AB000892798278927B8010E941C09262F60934F
:100AC0005C02623009F00BC380914802811190C32F
:100AD000809107018730F0F48F5F8093070191E0E8
:100AE000909348021092470221110DC38091460253
:100AF00081110DC080910701833009F447C080F453
:100B0000813081F18230C1F151E050934602109260
:100B1000450212C381E0E1CFA7E0A0930701F0C234
:100B2000853009F459C0C0F1863071F780910C010D
:100B300090910D01A0910E01B0910F01803147E21B
:100B40009407A105B10508F451C0805F984DAF4FDF
:100B5000BF4F80930C0190930D01A0930E01B093B1
:100B60000F01D2CF8091050190910601C29690931A
:100B7000060180930501C8CF809103019091040183
:100B8000C2969093040180930301BECF809102012D
:100B90008F5F80930201B8CF809108019091090185
:100BA000A0910A01B0910B01803137E29307A105B2
:100BB000B10568F0805F984DAF4FBF4F809308013B
:100BC00090930901A0930A01B0930B019DCF885126
:100BD0009C4FAF4FBF4FF2CF809100019091010128
:100BE000019690930101809300018ECF88519C4F14
:100BF000AF4FBF4FAECF853009F46DC008F444C08D
:100C0000863009F096C280910C0190910D01A0915F
:100C10000E01B0910F01813157E29507A105B10591
:100C200008F467C080519742A109B10980930C0173
:100C300090930D01A0930E01B0930F017AC28091A1
:100C40000501909106018333910508F472C2C297A1
:100C500090930601809305016CC2809103019091ED
:100C600004018333910508F464C2C2979093040190
:100C7000809303015EC280910201823008F459C260
:100C800081508093020155C2809108019091090121
:100C9000A0910A01B0910B01813137E29307A105C0
:100CA000B10568F080519742A109B109809308010C
:100CB00090930901A0930A01B0930B013AC2893EB7
:100CC00043E09407A105B10508F433C2885E934060
:100CD000A109B109EBCF809100019091010182300F
:100CE000910508F426C201979093010180930001B9
:100CF00020C2883E33E09307A105B10508F419C26C
:100D0000885E9340A109B10991CF80914A029091E8
:100D10004B02A0914C02B0914D02A5019401281BF9
:100D2000390B4A0B5B0BDA01C901813D9740A105E4
:100D3000B10508F42CC2711020C080915A028111B3
:100D40001CC041E040935A02809175029091760256
:100D5000A0917702B0917802809361029093620231
:100D6000A0936302B093640210925D0210925E023F
:100D700010925F02109260020AC280915902882389
:100D800009F405C210925A0210925B0210924902B5
:100D90001092590260E08DE00E94D30060E082E092
:100DA0000E94D30060E083E10E94D30080924A0257
:100DB00090924B02A0924C02B0924D02E8C1109268
:100DC0005802E5C180E591E00E94A20161E080E067
:100DD0000E94F30280910501909106010E94AF01EB
:100DE00081E691E00E94A2010E94440160935402B6
:100DF0007093550280935602909357028091580247
:100E000061E0882309F465C18FE00E94F30288E362
:100E100092E00E94A2012114310409F40ECD0E9437
:100E200000000BCD80E791E00E94A20161E080E02C
:100E30000E94F3028091030190910401CFCF81E8D9
:100E400091E00E94A20161E080E00E94F3026091C3
:100E5000020170E090E080E04AE00E94540183E9E2
:100E600091E0C0CF83EA91E00E94A20161E080E0BE
:100E70000E94F302609108017091090180910A01BA
:100E800090910B01A70196010E943009CA01B90196
:100E90004AE00E94540184EB91E0A4CF82EC91E0FF
:100EA0000E94A20161E080E00E94F30280910001B3
:100EB000909101010E94AF0184E991E093CF84ED0C
:100EC00091E00E94A20161E080E00E94F302609143
:100ED0000C0170910D0180910E0190910F01D2CF04
:100EE00085EE91E00E94A2016091020170E090E025
:100EF00080E04AE00E94540188EE91E00E94A20145
:100F000080910501909106010E94AF018CEE91E065
:100F10000E94A20180910301909104010E94AF01FF
:100F20008DE991E00E94A20161E080E00E94F3025D
:100F300080EF91E00E94A201809100019091010157
:100F40000E94AF0188EE91E00E94A2016091080129
:100F50007091090180910A0190910B01A7019601FE
:100F60000E943009CA01B9014AE00E94540183EF8E
:100F700091E00E94A20160910C0170910D0180919D
:100F80000E0190910F01A70196010E943009CA013C
:100F9000B9014AE00E94540189E991E023CF61E060
:100FA00080E00E94F30287EF91E0B1100BC08091C6
:100FB0005302811105C080915202882309F459C05F
:100FC0008BE092E00E94A20160E080E00E94F302C8
:100FD0008EE292E00E94A2016091520270E090E0E5
:100FE00080E04AE00E94540181EA91E00E94A2015F
:100FF00080E392E00E94A2016091530270E090E0D1
:1010000080E04AE00E94540181EA91E00E94A2013E
:1010100080915A02882381F182E392E00E94A2012A
:1010200060915D0270915E0280915F02909160021A
:10103000A70196010E943009CA01B9014AE00E9445
:10104000540184E392E00E94A20160910C0170912E
:101050000D0180910E0190910F01A70196010E9450
:101060003009CA01B9014AE00E9454018DE991E0BA
:10107000B9CE8CE192E0A6CF86E392E00E94A20175
:10108000609165027091660280916702909168029A
:10109000A70196010E943009CA01B9014AE00E94E5
:1010A000540184E392E00E94A201609108017091D2
:1010B000090180910A0190910B01A70196010E94FC
:1010C0003009CA01B9014AE00E9454018EE991E059
:1010D00089CE8FE00E94F30281EA91E09ACE1092CD
:1010E0004802613009F0FECC80914702811183C033
:1010F00080910701823008F40FCD81508093070161
:10110000B1E0B093470210924602233009F0FFCCC1
:1011100080914502811110C080910701833009F44C
:10112000AACD08F068CD813009F489CD823009F468
:1011300094CD41E04093450270905B02711004C071
:1011400080915A02882329F080915902882309F45A
:1011500036CE243009F033CE0E9444014B015C01AD
:1011600080924E0290924F02A0925002B092510291
:10117000809158028111C9CD80924A0290924B020F
:10118000A0924C02B0924D0251E0509358020E943E
:1011900044018090540290905502A0905602B09065
:1011A0005702681979098A099B096D3271408105D6
:1011B000910508F430CEB0905A0280915B02811103
:1011C000EECEB110ECCE60E00E94F302E091070198
:1011D000E150E73008F008CEF0E0EF50F74F0C9404
:1011E0005209E20612071F0732074E075F07700712
:1011F0001092470288CF1092460289CCE9E7F2E0CC
:101200001382128284E191E09183808388E0848359
:101210008FEF858389E0868384E0878385E08087FC
:1012200086E0818787E08287138614861586168676
:10123000178681E00C945102AA1BBB1B51E107C029
:10124000AA1FBB1FA617B70710F0A61BB70B881F56
:10125000991F5A95A9F780959095BC01CD010895E5
:10126000A1E21A2EAA1BBB1BFD010DC0AA1FBB1FAA
:10127000EE1FFF1FA217B307E407F50720F0A21B1C
:10128000B30BE40BF50B661F771F881F991F1A9489
:1012900069F760957095809590959B01AC01BD01B3
:1012A000CF010895EE0FFF1F0590F491E02D0994F2
:0412B000F894FFCFE0
:1012B4000F00052C0196000760EA0000C0D401006D
:1012C400000000000203A60051015001496E697438
:1012D400696C69616C697A696E672E2E2E00486F9D
:1012E4006C642073656C6563742000732020007443
:1012F4006F20737461727420616E7974696D650016
:1013040050756C73652077696474683A20202020D6
:1013140000206D7320202020202020202020200069
:1013240050756C7365206379636C653A20202020C6
:101334000050756C736573207065722074726169F6
:101344006E3A002020202020202020202020202051
:10135400202000547261696E206379636C653A20C1
:101364002020200020732020202020202020202046
:1013740020004E756D206F6620747261696E733A39
:1013840020202000547261696E2064656C61793A92
:10139400202020200050200020582000202F200052
:1013A40054200020442000547261696E2064656CEE
:1013B4006179696E67202020202000547261696E73
:1013C400204F4E20202020202020200054726169CC
:1013D4006E20444F4E452020202020202000500025
:0A13E400540044002F00520048009E
:00000001FF
